{
	"FirstSmartContract.sol": {
		"Budget": {
			"abi": [
				{
					"inputs": [
						{
							"internalType": "address",
							"name": "governmentAddress",
							"type": "address"
						},
						{
							"internalType": "address",
							"name": "multiSig",
							"type": "address"
						}
					],
					"stateMutability": "nonpayable",
					"type": "constructor"
				},
				{
					"anonymous": false,
					"inputs": [
						{
							"indexed": false,
							"internalType": "address",
							"name": "donator",
							"type": "address"
						},
						{
							"indexed": false,
							"internalType": "uint256",
							"name": "taxAmount",
							"type": "uint256"
						}
					],
					"name": "TaxPayed",
					"type": "event"
				},
				{
					"inputs": [],
					"name": "fund",
					"outputs": [],
					"stateMutability": "payable",
					"type": "function"
				},
				{
					"inputs": [
						{
							"internalType": "uint256",
							"name": "amount",
							"type": "uint256"
						},
						{
							"internalType": "address payable",
							"name": "receiver",
							"type": "address"
						}
					],
					"name": "sendPayment",
					"outputs": [],
					"stateMutability": "nonpayable",
					"type": "function"
				},
				{
					"inputs": [
						{
							"internalType": "address",
							"name": "",
							"type": "address"
						}
					],
					"name": "taxPayerMap",
					"outputs": [
						{
							"internalType": "uint256",
							"name": "taxAmount",
							"type": "uint256"
						},
						{
							"internalType": "enum Budget.TaxPayerType",
							"name": "taxPayerType",
							"type": "uint8"
						},
						{
							"internalType": "bool",
							"name": "voted",
							"type": "bool"
						},
						{
							"internalType": "uint256",
							"name": "vote",
							"type": "uint256"
						}
					],
					"stateMutability": "view",
					"type": "function"
				}
			],
			"devdoc": {
				"kind": "dev",
				"methods": {},
				"version": 1
			},
			"evm": {
				"assembly": "    /* \"FirstSmartContract.sol\":67:2138  contract Budget {  ... */\n  mstore(0x40, 0xc0)\n    /* \"FirstSmartContract.sol\":704:845  constructor(address governmentAddress, address multiSig) {... */\n  callvalue\n  dup1\n  iszero\n  tag_1\n  jumpi\n  0x00\n  dup1\n  revert\ntag_1:\n  pop\n  mload(0x40)\n  sub(codesize, bytecodeSize)\n  dup1\n  bytecodeSize\n  dup4\n  codecopy\n  dup2\n  dup2\n  add\n  0x40\n  mstore\n  dup2\n  add\n  swap1\n  tag_2\n  swap2\n  swap1\n  tag_3\n  jump\t// in\ntag_2:\n    /* \"FirstSmartContract.sol\":785:802  governmentAddress */\n  dup2\n    /* \"FirstSmartContract.sol\":772:802  government = governmentAddress */\n  0xffffffffffffffffffffffffffffffffffffffff\n  and\n  0x80\n  dup2\n  0xffffffffffffffffffffffffffffffffffffffff\n  and\n  dup2\n  mstore\n  pop\n  pop\n    /* \"FirstSmartContract.sol\":829:837  multiSig */\n  dup1\n    /* \"FirstSmartContract.sol\":813:837  adminMultisig = multiSig */\n  0xffffffffffffffffffffffffffffffffffffffff\n  and\n  0xa0\n  dup2\n  0xffffffffffffffffffffffffffffffffffffffff\n  and\n  dup2\n  mstore\n  pop\n  pop\n    /* \"FirstSmartContract.sol\":704:845  constructor(address governmentAddress, address multiSig) {... */\n  pop\n  pop\n    /* \"FirstSmartContract.sol\":67:2138  contract Budget {  ... */\n  jump(tag_6)\n    /* \"#utility.yul\":88:205   */\ntag_8:\n    /* \"#utility.yul\":197:198   */\n  0x00\n    /* \"#utility.yul\":194:195   */\n  dup1\n    /* \"#utility.yul\":187:199   */\n  revert\n    /* \"#utility.yul\":334:460   */\ntag_10:\n    /* \"#utility.yul\":371:378   */\n  0x00\n    /* \"#utility.yul\":411:453   */\n  0xffffffffffffffffffffffffffffffffffffffff\n    /* \"#utility.yul\":404:409   */\n  dup3\n    /* \"#utility.yul\":400:454   */\n  and\n    /* \"#utility.yul\":389:454   */\n  swap1\n  pop\n    /* \"#utility.yul\":334:460   */\n  swap2\n  swap1\n  pop\n  jump\t// out\n    /* \"#utility.yul\":466:562   */\ntag_11:\n    /* \"#utility.yul\":503:510   */\n  0x00\n    /* \"#utility.yul\":532:556   */\n  tag_20\n    /* \"#utility.yul\":550:555   */\n  dup3\n    /* \"#utility.yul\":532:556   */\n  tag_10\n  jump\t// in\ntag_20:\n    /* \"#utility.yul\":521:556   */\n  swap1\n  pop\n    /* \"#utility.yul\":466:562   */\n  swap2\n  swap1\n  pop\n  jump\t// out\n    /* \"#utility.yul\":568:690   */\ntag_12:\n    /* \"#utility.yul\":641:665   */\n  tag_22\n    /* \"#utility.yul\":659:664   */\n  dup2\n    /* \"#utility.yul\":641:665   */\n  tag_11\n  jump\t// in\ntag_22:\n    /* \"#utility.yul\":634:639   */\n  dup2\n    /* \"#utility.yul\":631:666   */\n  eq\n    /* \"#utility.yul\":621:684   */\n  tag_23\n  jumpi\n    /* \"#utility.yul\":680:681   */\n  0x00\n    /* \"#utility.yul\":677:678   */\n  dup1\n    /* \"#utility.yul\":670:682   */\n  revert\n    /* \"#utility.yul\":621:684   */\ntag_23:\n    /* \"#utility.yul\":568:690   */\n  pop\n  jump\t// out\n    /* \"#utility.yul\":696:839   */\ntag_13:\n    /* \"#utility.yul\":753:758   */\n  0x00\n    /* \"#utility.yul\":784:790   */\n  dup2\n    /* \"#utility.yul\":778:791   */\n  mload\n    /* \"#utility.yul\":769:791   */\n  swap1\n  pop\n    /* \"#utility.yul\":800:833   */\n  tag_25\n    /* \"#utility.yul\":827:832   */\n  dup2\n    /* \"#utility.yul\":800:833   */\n  tag_12\n  jump\t// in\ntag_25:\n    /* \"#utility.yul\":696:839   */\n  swap3\n  swap2\n  pop\n  pop\n  jump\t// out\n    /* \"#utility.yul\":845:1352   */\ntag_3:\n    /* \"#utility.yul\":924:930   */\n  0x00\n    /* \"#utility.yul\":932:938   */\n  dup1\n    /* \"#utility.yul\":981:983   */\n  0x40\n    /* \"#utility.yul\":969:978   */\n  dup4\n    /* \"#utility.yul\":960:967   */\n  dup6\n    /* \"#utility.yul\":956:979   */\n  sub\n    /* \"#utility.yul\":952:984   */\n  slt\n    /* \"#utility.yul\":949:1068   */\n  iszero\n  tag_27\n  jumpi\n    /* \"#utility.yul\":987:1066   */\n  tag_28\n  tag_8\n  jump\t// in\ntag_28:\n    /* \"#utility.yul\":949:1068   */\ntag_27:\n    /* \"#utility.yul\":1107:1108   */\n  0x00\n    /* \"#utility.yul\":1132:1196   */\n  tag_29\n    /* \"#utility.yul\":1188:1195   */\n  dup6\n    /* \"#utility.yul\":1179:1185   */\n  dup3\n    /* \"#utility.yul\":1168:1177   */\n  dup7\n    /* \"#utility.yul\":1164:1186   */\n  add\n    /* \"#utility.yul\":1132:1196   */\n  tag_13\n  jump\t// in\ntag_29:\n    /* \"#utility.yul\":1122:1196   */\n  swap3\n  pop\n    /* \"#utility.yul\":1078:1206   */\n  pop\n    /* \"#utility.yul\":1245:1247   */\n  0x20\n    /* \"#utility.yul\":1271:1335   */\n  tag_30\n    /* \"#utility.yul\":1327:1334   */\n  dup6\n    /* \"#utility.yul\":1318:1324   */\n  dup3\n    /* \"#utility.yul\":1307:1316   */\n  dup7\n    /* \"#utility.yul\":1303:1325   */\n  add\n    /* \"#utility.yul\":1271:1335   */\n  tag_13\n  jump\t// in\ntag_30:\n    /* \"#utility.yul\":1261:1335   */\n  swap2\n  pop\n    /* \"#utility.yul\":1216:1345   */\n  pop\n    /* \"#utility.yul\":845:1352   */\n  swap3\n  pop\n  swap3\n  swap1\n  pop\n  jump\t// out\n    /* \"FirstSmartContract.sol\":67:2138  contract Budget {  ... */\ntag_6:\n  mload(0x80)\n  mload(0xa0)\n  codecopy(0x00, dataOffset(sub_0), dataSize(sub_0))\n  0x00\n  assignImmutable(\"0x8fef2229291b68be841adf029e58b87f39ba144b2d3b0af1760243d0a9bc6a1c\")\n  0x00\n  assignImmutable(\"0x277ab82e5a4641341820a4a2933a62c1de997e42e92548657ae21b3728d580fe\")\n  return(0x00, dataSize(sub_0))\nstop\n\nsub_0: assembly {\n        /* \"FirstSmartContract.sol\":67:2138  contract Budget {  ... */\n      mstore(0x40, 0x80)\n      jumpi(tag_1, lt(calldatasize, 0x04))\n      shr(0xe0, calldataload(0x00))\n      dup1\n      0x3672c0d9\n      eq\n      tag_2\n      jumpi\n      dup1\n      0xb60d4288\n      eq\n      tag_3\n      jumpi\n      dup1\n      0xc58a6ce8\n      eq\n      tag_4\n      jumpi\n    tag_1:\n      0x00\n      dup1\n      revert\n        /* \"FirstSmartContract.sol\":1106:1153  mapping(address => TaxPayer) public taxPayerMap */\n    tag_2:\n      callvalue\n      dup1\n      iszero\n      tag_5\n      jumpi\n      0x00\n      dup1\n      revert\n    tag_5:\n      pop\n      tag_6\n      0x04\n      dup1\n      calldatasize\n      sub\n      dup2\n      add\n      swap1\n      tag_7\n      swap2\n      swap1\n      tag_8\n      jump\t// in\n    tag_7:\n      tag_9\n      jump\t// in\n    tag_6:\n      mload(0x40)\n      tag_10\n      swap5\n      swap4\n      swap3\n      swap2\n      swap1\n      tag_11\n      jump\t// in\n    tag_10:\n      mload(0x40)\n      dup1\n      swap2\n      sub\n      swap1\n      return\n        /* \"FirstSmartContract.sol\":1319:1510  function fund() external payable {... */\n    tag_3:\n      tag_12\n      tag_13\n      jump\t// in\n    tag_12:\n      stop\n        /* \"FirstSmartContract.sol\":1908:2133  function sendPayment(uint256 amount, address payable receiver) public onlyAdmin {... */\n    tag_4:\n      callvalue\n      dup1\n      iszero\n      tag_14\n      jumpi\n      0x00\n      dup1\n      revert\n    tag_14:\n      pop\n      tag_15\n      0x04\n      dup1\n      calldatasize\n      sub\n      dup2\n      add\n      swap1\n      tag_16\n      swap2\n      swap1\n      tag_17\n      jump\t// in\n    tag_16:\n      tag_18\n      jump\t// in\n    tag_15:\n      stop\n        /* \"FirstSmartContract.sol\":1106:1153  mapping(address => TaxPayer) public taxPayerMap */\n    tag_9:\n      mstore(0x20, 0x00)\n      dup1\n      0x00\n      mstore\n      keccak256(0x00, 0x40)\n      0x00\n      swap2\n      pop\n      swap1\n      pop\n      dup1\n      0x00\n      add\n      sload\n      swap1\n      dup1\n      0x01\n      add\n      0x00\n      swap1\n      sload\n      swap1\n      0x0100\n      exp\n      swap1\n      div\n      0xff\n      and\n      swap1\n      dup1\n      0x01\n      add\n      0x01\n      swap1\n      sload\n      swap1\n      0x0100\n      exp\n      swap1\n      div\n      0xff\n      and\n      swap1\n      dup1\n      0x02\n      add\n      sload\n      swap1\n      pop\n      dup5\n      jump\t// out\n        /* \"FirstSmartContract.sol\":1319:1510  function fund() external payable {... */\n    tag_13:\n        /* \"FirstSmartContract.sol\":1444:1453  msg.value */\n      callvalue\n        /* \"FirstSmartContract.sol\":1407:1418  taxPayerMap */\n      0x00\n        /* \"FirstSmartContract.sol\":1407:1430  taxPayerMap[msg.sender] */\n      dup1\n        /* \"FirstSmartContract.sol\":1419:1429  msg.sender */\n      caller\n        /* \"FirstSmartContract.sol\":1407:1430  taxPayerMap[msg.sender] */\n      0xffffffffffffffffffffffffffffffffffffffff\n      and\n      0xffffffffffffffffffffffffffffffffffffffff\n      and\n      dup2\n      mstore\n      0x20\n      add\n      swap1\n      dup2\n      mstore\n      0x20\n      add\n      0x00\n      keccak256\n        /* \"FirstSmartContract.sol\":1407:1440  taxPayerMap[msg.sender].taxAmount */\n      0x00\n      add\n      0x00\n        /* \"FirstSmartContract.sol\":1407:1453  taxPayerMap[msg.sender].taxAmount += msg.value */\n      dup3\n      dup3\n      sload\n      tag_20\n      swap2\n      swap1\n      tag_21\n      jump\t// in\n    tag_20:\n      swap3\n      pop\n      pop\n      dup2\n      swap1\n      sstore\n      pop\n        /* \"FirstSmartContract.sol\":1471:1502  TaxPayed(msg.sender, msg.value) */\n      0xf4fef3c96e7d221891f3d9d3dff8d9a2b1efaabea4dc49b0cc01cda6df99ef0f\n        /* \"FirstSmartContract.sol\":1480:1490  msg.sender */\n      caller\n        /* \"FirstSmartContract.sol\":1492:1501  msg.value */\n      callvalue\n        /* \"FirstSmartContract.sol\":1471:1502  TaxPayed(msg.sender, msg.value) */\n      mload(0x40)\n      tag_22\n      swap3\n      swap2\n      swap1\n      tag_23\n      jump\t// in\n    tag_22:\n      mload(0x40)\n      dup1\n      swap2\n      sub\n      swap1\n      log1\n        /* \"FirstSmartContract.sol\":1319:1510  function fund() external payable {... */\n      jump\t// out\n        /* \"FirstSmartContract.sol\":1908:2133  function sendPayment(uint256 amount, address payable receiver) public onlyAdmin {... */\n    tag_18:\n        /* \"FirstSmartContract.sol\":907:917  government */\n      immutable(\"0x277ab82e5a4641341820a4a2933a62c1de997e42e92548657ae21b3728d580fe\")\n        /* \"FirstSmartContract.sol\":893:917  msg.sender == government */\n      0xffffffffffffffffffffffffffffffffffffffff\n      and\n        /* \"FirstSmartContract.sol\":893:903  msg.sender */\n      caller\n        /* \"FirstSmartContract.sol\":893:917  msg.sender == government */\n      0xffffffffffffffffffffffffffffffffffffffff\n      and\n      eq\n        /* \"FirstSmartContract.sol\":885:947  require(msg.sender == government,\"Error: Only Admin Can Call\") */\n      tag_25\n      jumpi\n      mload(0x40)\n      0x08c379a000000000000000000000000000000000000000000000000000000000\n      dup2\n      mstore\n      0x04\n      add\n      tag_26\n      swap1\n      tag_27\n      jump\t// in\n    tag_26:\n      mload(0x40)\n      dup1\n      swap2\n      sub\n      swap1\n      revert\n    tag_25:\n        /* \"FirstSmartContract.sol\":2032:2038  amount */\n      dup2\n        /* \"FirstSmartContract.sol\":2007:2028  address(this).balance */\n      selfbalance\n        /* \"FirstSmartContract.sol\":2007:2038  address(this).balance >= amount */\n      lt\n      iszero\n        /* \"FirstSmartContract.sol\":1999:2079  require(address(this).balance >= amount, \"Insufficient balance in the contract\") */\n      tag_29\n      jumpi\n      mload(0x40)\n      0x08c379a000000000000000000000000000000000000000000000000000000000\n      dup2\n      mstore\n      0x04\n      add\n      tag_30\n      swap1\n      tag_31\n      jump\t// in\n    tag_30:\n      mload(0x40)\n      dup1\n      swap2\n      sub\n      swap1\n      revert\n    tag_29:\n        /* \"FirstSmartContract.sol\":2100:2108  receiver */\n      dup1\n        /* \"FirstSmartContract.sol\":2100:2117  receiver.transfer */\n      0xffffffffffffffffffffffffffffffffffffffff\n      and\n        /* \"FirstSmartContract.sol\":2100:2125  receiver.transfer(amount) */\n      0x08fc\n        /* \"FirstSmartContract.sol\":2118:2124  amount */\n      dup4\n        /* \"FirstSmartContract.sol\":2100:2125  receiver.transfer(amount) */\n      swap1\n      dup2\n      iszero\n      mul\n      swap1\n      mload(0x40)\n      0x00\n      mload(0x40)\n      dup1\n      dup4\n      sub\n      dup2\n      dup6\n      dup9\n      dup9\n      call\n      swap4\n      pop\n      pop\n      pop\n      pop\n      iszero\n      dup1\n      iszero\n      tag_33\n      jumpi\n      returndatasize\n      0x00\n      dup1\n      returndatacopy\n      revert(0x00, returndatasize)\n    tag_33:\n      pop\n        /* \"FirstSmartContract.sol\":1908:2133  function sendPayment(uint256 amount, address payable receiver) public onlyAdmin {... */\n      pop\n      pop\n      jump\t// out\n        /* \"#utility.yul\":88:205   */\n    tag_35:\n        /* \"#utility.yul\":197:198   */\n      0x00\n        /* \"#utility.yul\":194:195   */\n      dup1\n        /* \"#utility.yul\":187:199   */\n      revert\n        /* \"#utility.yul\":334:460   */\n    tag_37:\n        /* \"#utility.yul\":371:378   */\n      0x00\n        /* \"#utility.yul\":411:453   */\n      0xffffffffffffffffffffffffffffffffffffffff\n        /* \"#utility.yul\":404:409   */\n      dup3\n        /* \"#utility.yul\":400:454   */\n      and\n        /* \"#utility.yul\":389:454   */\n      swap1\n      pop\n        /* \"#utility.yul\":334:460   */\n      swap2\n      swap1\n      pop\n      jump\t// out\n        /* \"#utility.yul\":466:562   */\n    tag_38:\n        /* \"#utility.yul\":503:510   */\n      0x00\n        /* \"#utility.yul\":532:556   */\n      tag_68\n        /* \"#utility.yul\":550:555   */\n      dup3\n        /* \"#utility.yul\":532:556   */\n      tag_37\n      jump\t// in\n    tag_68:\n        /* \"#utility.yul\":521:556   */\n      swap1\n      pop\n        /* \"#utility.yul\":466:562   */\n      swap2\n      swap1\n      pop\n      jump\t// out\n        /* \"#utility.yul\":568:690   */\n    tag_39:\n        /* \"#utility.yul\":641:665   */\n      tag_70\n        /* \"#utility.yul\":659:664   */\n      dup2\n        /* \"#utility.yul\":641:665   */\n      tag_38\n      jump\t// in\n    tag_70:\n        /* \"#utility.yul\":634:639   */\n      dup2\n        /* \"#utility.yul\":631:666   */\n      eq\n        /* \"#utility.yul\":621:684   */\n      tag_71\n      jumpi\n        /* \"#utility.yul\":680:681   */\n      0x00\n        /* \"#utility.yul\":677:678   */\n      dup1\n        /* \"#utility.yul\":670:682   */\n      revert\n        /* \"#utility.yul\":621:684   */\n    tag_71:\n        /* \"#utility.yul\":568:690   */\n      pop\n      jump\t// out\n        /* \"#utility.yul\":696:835   */\n    tag_40:\n        /* \"#utility.yul\":742:747   */\n      0x00\n        /* \"#utility.yul\":780:786   */\n      dup2\n        /* \"#utility.yul\":767:787   */\n      calldataload\n        /* \"#utility.yul\":758:787   */\n      swap1\n      pop\n        /* \"#utility.yul\":796:829   */\n      tag_73\n        /* \"#utility.yul\":823:828   */\n      dup2\n        /* \"#utility.yul\":796:829   */\n      tag_39\n      jump\t// in\n    tag_73:\n        /* \"#utility.yul\":696:835   */\n      swap3\n      swap2\n      pop\n      pop\n      jump\t// out\n        /* \"#utility.yul\":841:1170   */\n    tag_8:\n        /* \"#utility.yul\":900:906   */\n      0x00\n        /* \"#utility.yul\":949:951   */\n      0x20\n        /* \"#utility.yul\":937:946   */\n      dup3\n        /* \"#utility.yul\":928:935   */\n      dup5\n        /* \"#utility.yul\":924:947   */\n      sub\n        /* \"#utility.yul\":920:952   */\n      slt\n        /* \"#utility.yul\":917:1036   */\n      iszero\n      tag_75\n      jumpi\n        /* \"#utility.yul\":955:1034   */\n      tag_76\n      tag_35\n      jump\t// in\n    tag_76:\n        /* \"#utility.yul\":917:1036   */\n    tag_75:\n        /* \"#utility.yul\":1075:1076   */\n      0x00\n        /* \"#utility.yul\":1100:1153   */\n      tag_77\n        /* \"#utility.yul\":1145:1152   */\n      dup5\n        /* \"#utility.yul\":1136:1142   */\n      dup3\n        /* \"#utility.yul\":1125:1134   */\n      dup6\n        /* \"#utility.yul\":1121:1143   */\n      add\n        /* \"#utility.yul\":1100:1153   */\n      tag_40\n      jump\t// in\n    tag_77:\n        /* \"#utility.yul\":1090:1153   */\n      swap2\n      pop\n        /* \"#utility.yul\":1046:1163   */\n      pop\n        /* \"#utility.yul\":841:1170   */\n      swap3\n      swap2\n      pop\n      pop\n      jump\t// out\n        /* \"#utility.yul\":1176:1253   */\n    tag_41:\n        /* \"#utility.yul\":1213:1220   */\n      0x00\n        /* \"#utility.yul\":1242:1247   */\n      dup2\n        /* \"#utility.yul\":1231:1247   */\n      swap1\n      pop\n        /* \"#utility.yul\":1176:1253   */\n      swap2\n      swap1\n      pop\n      jump\t// out\n        /* \"#utility.yul\":1259:1377   */\n    tag_42:\n        /* \"#utility.yul\":1346:1370   */\n      tag_80\n        /* \"#utility.yul\":1364:1369   */\n      dup2\n        /* \"#utility.yul\":1346:1370   */\n      tag_41\n      jump\t// in\n    tag_80:\n        /* \"#utility.yul\":1341:1344   */\n      dup3\n        /* \"#utility.yul\":1334:1371   */\n      mstore\n        /* \"#utility.yul\":1259:1377   */\n      pop\n      pop\n      jump\t// out\n        /* \"#utility.yul\":1383:1563   */\n    tag_43:\n        /* \"#utility.yul\":1431:1508   */\n      0x4e487b7100000000000000000000000000000000000000000000000000000000\n        /* \"#utility.yul\":1428:1429   */\n      0x00\n        /* \"#utility.yul\":1421:1509   */\n      mstore\n        /* \"#utility.yul\":1528:1532   */\n      0x21\n        /* \"#utility.yul\":1525:1526   */\n      0x04\n        /* \"#utility.yul\":1518:1533   */\n      mstore\n        /* \"#utility.yul\":1552:1556   */\n      0x24\n        /* \"#utility.yul\":1549:1550   */\n      0x00\n        /* \"#utility.yul\":1542:1557   */\n      revert\n        /* \"#utility.yul\":1569:1688   */\n    tag_44:\n        /* \"#utility.yul\":1656:1657   */\n      0x02\n        /* \"#utility.yul\":1649:1654   */\n      dup2\n        /* \"#utility.yul\":1646:1658   */\n      lt\n        /* \"#utility.yul\":1636:1682   */\n      tag_83\n      jumpi\n        /* \"#utility.yul\":1662:1680   */\n      tag_84\n      tag_43\n      jump\t// in\n    tag_84:\n        /* \"#utility.yul\":1636:1682   */\n    tag_83:\n        /* \"#utility.yul\":1569:1688   */\n      pop\n      jump\t// out\n        /* \"#utility.yul\":1694:1833   */\n    tag_45:\n        /* \"#utility.yul\":1745:1752   */\n      0x00\n        /* \"#utility.yul\":1774:1779   */\n      dup2\n        /* \"#utility.yul\":1763:1779   */\n      swap1\n      pop\n        /* \"#utility.yul\":1780:1827   */\n      tag_86\n        /* \"#utility.yul\":1821:1826   */\n      dup3\n        /* \"#utility.yul\":1780:1827   */\n      tag_44\n      jump\t// in\n    tag_86:\n        /* \"#utility.yul\":1694:1833   */\n      swap2\n      swap1\n      pop\n      jump\t// out\n        /* \"#utility.yul\":1839:1978   */\n    tag_46:\n        /* \"#utility.yul\":1901:1910   */\n      0x00\n        /* \"#utility.yul\":1934:1972   */\n      tag_88\n        /* \"#utility.yul\":1966:1971   */\n      dup3\n        /* \"#utility.yul\":1934:1972   */\n      tag_45\n      jump\t// in\n    tag_88:\n        /* \"#utility.yul\":1921:1972   */\n      swap1\n      pop\n        /* \"#utility.yul\":1839:1978   */\n      swap2\n      swap1\n      pop\n      jump\t// out\n        /* \"#utility.yul\":1984:2139   */\n    tag_47:\n        /* \"#utility.yul\":2083:2132   */\n      tag_90\n        /* \"#utility.yul\":2126:2131   */\n      dup2\n        /* \"#utility.yul\":2083:2132   */\n      tag_46\n      jump\t// in\n    tag_90:\n        /* \"#utility.yul\":2078:2081   */\n      dup3\n        /* \"#utility.yul\":2071:2133   */\n      mstore\n        /* \"#utility.yul\":1984:2139   */\n      pop\n      pop\n      jump\t// out\n        /* \"#utility.yul\":2145:2235   */\n    tag_48:\n        /* \"#utility.yul\":2179:2186   */\n      0x00\n        /* \"#utility.yul\":2222:2227   */\n      dup2\n        /* \"#utility.yul\":2215:2228   */\n      iszero\n        /* \"#utility.yul\":2208:2229   */\n      iszero\n        /* \"#utility.yul\":2197:2229   */\n      swap1\n      pop\n        /* \"#utility.yul\":2145:2235   */\n      swap2\n      swap1\n      pop\n      jump\t// out\n        /* \"#utility.yul\":2241:2350   */\n    tag_49:\n        /* \"#utility.yul\":2322:2343   */\n      tag_93\n        /* \"#utility.yul\":2337:2342   */\n      dup2\n        /* \"#utility.yul\":2322:2343   */\n      tag_48\n      jump\t// in\n    tag_93:\n        /* \"#utility.yul\":2317:2320   */\n      dup3\n        /* \"#utility.yul\":2310:2344   */\n      mstore\n        /* \"#utility.yul\":2241:2350   */\n      pop\n      pop\n      jump\t// out\n        /* \"#utility.yul\":2356:2921   */\n    tag_11:\n        /* \"#utility.yul\":2539:2543   */\n      0x00\n        /* \"#utility.yul\":2577:2580   */\n      0x80\n        /* \"#utility.yul\":2566:2575   */\n      dup3\n        /* \"#utility.yul\":2562:2581   */\n      add\n        /* \"#utility.yul\":2554:2581   */\n      swap1\n      pop\n        /* \"#utility.yul\":2591:2662   */\n      tag_95\n        /* \"#utility.yul\":2659:2660   */\n      0x00\n        /* \"#utility.yul\":2648:2657   */\n      dup4\n        /* \"#utility.yul\":2644:2661   */\n      add\n        /* \"#utility.yul\":2635:2641   */\n      dup8\n        /* \"#utility.yul\":2591:2662   */\n      tag_42\n      jump\t// in\n    tag_95:\n        /* \"#utility.yul\":2672:2756   */\n      tag_96\n        /* \"#utility.yul\":2752:2754   */\n      0x20\n        /* \"#utility.yul\":2741:2750   */\n      dup4\n        /* \"#utility.yul\":2737:2755   */\n      add\n        /* \"#utility.yul\":2728:2734   */\n      dup7\n        /* \"#utility.yul\":2672:2756   */\n      tag_47\n      jump\t// in\n    tag_96:\n        /* \"#utility.yul\":2766:2832   */\n      tag_97\n        /* \"#utility.yul\":2828:2830   */\n      0x40\n        /* \"#utility.yul\":2817:2826   */\n      dup4\n        /* \"#utility.yul\":2813:2831   */\n      add\n        /* \"#utility.yul\":2804:2810   */\n      dup6\n        /* \"#utility.yul\":2766:2832   */\n      tag_49\n      jump\t// in\n    tag_97:\n        /* \"#utility.yul\":2842:2914   */\n      tag_98\n        /* \"#utility.yul\":2910:2912   */\n      0x60\n        /* \"#utility.yul\":2899:2908   */\n      dup4\n        /* \"#utility.yul\":2895:2913   */\n      add\n        /* \"#utility.yul\":2886:2892   */\n      dup5\n        /* \"#utility.yul\":2842:2914   */\n      tag_42\n      jump\t// in\n    tag_98:\n        /* \"#utility.yul\":2356:2921   */\n      swap6\n      swap5\n      pop\n      pop\n      pop\n      pop\n      pop\n      jump\t// out\n        /* \"#utility.yul\":2927:3049   */\n    tag_50:\n        /* \"#utility.yul\":3000:3024   */\n      tag_100\n        /* \"#utility.yul\":3018:3023   */\n      dup2\n        /* \"#utility.yul\":3000:3024   */\n      tag_41\n      jump\t// in\n    tag_100:\n        /* \"#utility.yul\":2993:2998   */\n      dup2\n        /* \"#utility.yul\":2990:3025   */\n      eq\n        /* \"#utility.yul\":2980:3043   */\n      tag_101\n      jumpi\n        /* \"#utility.yul\":3039:3040   */\n      0x00\n        /* \"#utility.yul\":3036:3037   */\n      dup1\n        /* \"#utility.yul\":3029:3041   */\n      revert\n        /* \"#utility.yul\":2980:3043   */\n    tag_101:\n        /* \"#utility.yul\":2927:3049   */\n      pop\n      jump\t// out\n        /* \"#utility.yul\":3055:3194   */\n    tag_51:\n        /* \"#utility.yul\":3101:3106   */\n      0x00\n        /* \"#utility.yul\":3139:3145   */\n      dup2\n        /* \"#utility.yul\":3126:3146   */\n      calldataload\n        /* \"#utility.yul\":3117:3146   */\n      swap1\n      pop\n        /* \"#utility.yul\":3155:3188   */\n      tag_103\n        /* \"#utility.yul\":3182:3187   */\n      dup2\n        /* \"#utility.yul\":3155:3188   */\n      tag_50\n      jump\t// in\n    tag_103:\n        /* \"#utility.yul\":3055:3194   */\n      swap3\n      swap2\n      pop\n      pop\n      jump\t// out\n        /* \"#utility.yul\":3200:3304   */\n    tag_52:\n        /* \"#utility.yul\":3245:3252   */\n      0x00\n        /* \"#utility.yul\":3274:3298   */\n      tag_105\n        /* \"#utility.yul\":3292:3297   */\n      dup3\n        /* \"#utility.yul\":3274:3298   */\n      tag_37\n      jump\t// in\n    tag_105:\n        /* \"#utility.yul\":3263:3298   */\n      swap1\n      pop\n        /* \"#utility.yul\":3200:3304   */\n      swap2\n      swap1\n      pop\n      jump\t// out\n        /* \"#utility.yul\":3310:3448   */\n    tag_53:\n        /* \"#utility.yul\":3391:3423   */\n      tag_107\n        /* \"#utility.yul\":3417:3422   */\n      dup2\n        /* \"#utility.yul\":3391:3423   */\n      tag_52\n      jump\t// in\n    tag_107:\n        /* \"#utility.yul\":3384:3389   */\n      dup2\n        /* \"#utility.yul\":3381:3424   */\n      eq\n        /* \"#utility.yul\":3371:3442   */\n      tag_108\n      jumpi\n        /* \"#utility.yul\":3438:3439   */\n      0x00\n        /* \"#utility.yul\":3435:3436   */\n      dup1\n        /* \"#utility.yul\":3428:3440   */\n      revert\n        /* \"#utility.yul\":3371:3442   */\n    tag_108:\n        /* \"#utility.yul\":3310:3448   */\n      pop\n      jump\t// out\n        /* \"#utility.yul\":3454:3609   */\n    tag_54:\n        /* \"#utility.yul\":3508:3513   */\n      0x00\n        /* \"#utility.yul\":3546:3552   */\n      dup2\n        /* \"#utility.yul\":3533:3553   */\n      calldataload\n        /* \"#utility.yul\":3524:3553   */\n      swap1\n      pop\n        /* \"#utility.yul\":3562:3603   */\n      tag_110\n        /* \"#utility.yul\":3597:3602   */\n      dup2\n        /* \"#utility.yul\":3562:3603   */\n      tag_53\n      jump\t// in\n    tag_110:\n        /* \"#utility.yul\":3454:3609   */\n      swap3\n      swap2\n      pop\n      pop\n      jump\t// out\n        /* \"#utility.yul\":3615:4105   */\n    tag_17:\n        /* \"#utility.yul\":3691:3697   */\n      0x00\n        /* \"#utility.yul\":3699:3705   */\n      dup1\n        /* \"#utility.yul\":3748:3750   */\n      0x40\n        /* \"#utility.yul\":3736:3745   */\n      dup4\n        /* \"#utility.yul\":3727:3734   */\n      dup6\n        /* \"#utility.yul\":3723:3746   */\n      sub\n        /* \"#utility.yul\":3719:3751   */\n      slt\n        /* \"#utility.yul\":3716:3835   */\n      iszero\n      tag_112\n      jumpi\n        /* \"#utility.yul\":3754:3833   */\n      tag_113\n      tag_35\n      jump\t// in\n    tag_113:\n        /* \"#utility.yul\":3716:3835   */\n    tag_112:\n        /* \"#utility.yul\":3874:3875   */\n      0x00\n        /* \"#utility.yul\":3899:3952   */\n      tag_114\n        /* \"#utility.yul\":3944:3951   */\n      dup6\n        /* \"#utility.yul\":3935:3941   */\n      dup3\n        /* \"#utility.yul\":3924:3933   */\n      dup7\n        /* \"#utility.yul\":3920:3942   */\n      add\n        /* \"#utility.yul\":3899:3952   */\n      tag_51\n      jump\t// in\n    tag_114:\n        /* \"#utility.yul\":3889:3952   */\n      swap3\n      pop\n        /* \"#utility.yul\":3845:3962   */\n      pop\n        /* \"#utility.yul\":4001:4003   */\n      0x20\n        /* \"#utility.yul\":4027:4088   */\n      tag_115\n        /* \"#utility.yul\":4080:4087   */\n      dup6\n        /* \"#utility.yul\":4071:4077   */\n      dup3\n        /* \"#utility.yul\":4060:4069   */\n      dup7\n        /* \"#utility.yul\":4056:4078   */\n      add\n        /* \"#utility.yul\":4027:4088   */\n      tag_54\n      jump\t// in\n    tag_115:\n        /* \"#utility.yul\":4017:4088   */\n      swap2\n      pop\n        /* \"#utility.yul\":3972:4098   */\n      pop\n        /* \"#utility.yul\":3615:4105   */\n      swap3\n      pop\n      swap3\n      swap1\n      pop\n      jump\t// out\n        /* \"#utility.yul\":4111:4291   */\n    tag_55:\n        /* \"#utility.yul\":4159:4236   */\n      0x4e487b7100000000000000000000000000000000000000000000000000000000\n        /* \"#utility.yul\":4156:4157   */\n      0x00\n        /* \"#utility.yul\":4149:4237   */\n      mstore\n        /* \"#utility.yul\":4256:4260   */\n      0x11\n        /* \"#utility.yul\":4253:4254   */\n      0x04\n        /* \"#utility.yul\":4246:4261   */\n      mstore\n        /* \"#utility.yul\":4280:4284   */\n      0x24\n        /* \"#utility.yul\":4277:4278   */\n      0x00\n        /* \"#utility.yul\":4270:4285   */\n      revert\n        /* \"#utility.yul\":4297:4488   */\n    tag_21:\n        /* \"#utility.yul\":4337:4340   */\n      0x00\n        /* \"#utility.yul\":4356:4376   */\n      tag_118\n        /* \"#utility.yul\":4374:4375   */\n      dup3\n        /* \"#utility.yul\":4356:4376   */\n      tag_41\n      jump\t// in\n    tag_118:\n        /* \"#utility.yul\":4351:4376   */\n      swap2\n      pop\n        /* \"#utility.yul\":4390:4410   */\n      tag_119\n        /* \"#utility.yul\":4408:4409   */\n      dup4\n        /* \"#utility.yul\":4390:4410   */\n      tag_41\n      jump\t// in\n    tag_119:\n        /* \"#utility.yul\":4385:4410   */\n      swap3\n      pop\n        /* \"#utility.yul\":4433:4434   */\n      dup3\n        /* \"#utility.yul\":4430:4431   */\n      dup3\n        /* \"#utility.yul\":4426:4435   */\n      add\n        /* \"#utility.yul\":4419:4435   */\n      swap1\n      pop\n        /* \"#utility.yul\":4454:4457   */\n      dup1\n        /* \"#utility.yul\":4451:4452   */\n      dup3\n        /* \"#utility.yul\":4448:4458   */\n      gt\n        /* \"#utility.yul\":4445:4481   */\n      iszero\n      tag_120\n      jumpi\n        /* \"#utility.yul\":4461:4479   */\n      tag_121\n      tag_55\n      jump\t// in\n    tag_121:\n        /* \"#utility.yul\":4445:4481   */\n    tag_120:\n        /* \"#utility.yul\":4297:4488   */\n      swap3\n      swap2\n      pop\n      pop\n      jump\t// out\n        /* \"#utility.yul\":4494:4612   */\n    tag_56:\n        /* \"#utility.yul\":4581:4605   */\n      tag_123\n        /* \"#utility.yul\":4599:4604   */\n      dup2\n        /* \"#utility.yul\":4581:4605   */\n      tag_38\n      jump\t// in\n    tag_123:\n        /* \"#utility.yul\":4576:4579   */\n      dup3\n        /* \"#utility.yul\":4569:4606   */\n      mstore\n        /* \"#utility.yul\":4494:4612   */\n      pop\n      pop\n      jump\t// out\n        /* \"#utility.yul\":4618:4950   */\n    tag_23:\n        /* \"#utility.yul\":4739:4743   */\n      0x00\n        /* \"#utility.yul\":4777:4779   */\n      0x40\n        /* \"#utility.yul\":4766:4775   */\n      dup3\n        /* \"#utility.yul\":4762:4780   */\n      add\n        /* \"#utility.yul\":4754:4780   */\n      swap1\n      pop\n        /* \"#utility.yul\":4790:4861   */\n      tag_125\n        /* \"#utility.yul\":4858:4859   */\n      0x00\n        /* \"#utility.yul\":4847:4856   */\n      dup4\n        /* \"#utility.yul\":4843:4860   */\n      add\n        /* \"#utility.yul\":4834:4840   */\n      dup6\n        /* \"#utility.yul\":4790:4861   */\n      tag_56\n      jump\t// in\n    tag_125:\n        /* \"#utility.yul\":4871:4943   */\n      tag_126\n        /* \"#utility.yul\":4939:4941   */\n      0x20\n        /* \"#utility.yul\":4928:4937   */\n      dup4\n        /* \"#utility.yul\":4924:4942   */\n      add\n        /* \"#utility.yul\":4915:4921   */\n      dup5\n        /* \"#utility.yul\":4871:4943   */\n      tag_42\n      jump\t// in\n    tag_126:\n        /* \"#utility.yul\":4618:4950   */\n      swap4\n      swap3\n      pop\n      pop\n      pop\n      jump\t// out\n        /* \"#utility.yul\":4956:5125   */\n    tag_57:\n        /* \"#utility.yul\":5040:5051   */\n      0x00\n        /* \"#utility.yul\":5074:5080   */\n      dup3\n        /* \"#utility.yul\":5069:5072   */\n      dup3\n        /* \"#utility.yul\":5062:5081   */\n      mstore\n        /* \"#utility.yul\":5114:5118   */\n      0x20\n        /* \"#utility.yul\":5109:5112   */\n      dup3\n        /* \"#utility.yul\":5105:5119   */\n      add\n        /* \"#utility.yul\":5090:5119   */\n      swap1\n      pop\n        /* \"#utility.yul\":4956:5125   */\n      swap3\n      swap2\n      pop\n      pop\n      jump\t// out\n        /* \"#utility.yul\":5131:5307   */\n    tag_58:\n        /* \"#utility.yul\":5271:5299   */\n      0x4572726f723a204f6e6c792041646d696e2043616e2043616c6c000000000000\n        /* \"#utility.yul\":5267:5268   */\n      0x00\n        /* \"#utility.yul\":5259:5265   */\n      dup3\n        /* \"#utility.yul\":5255:5269   */\n      add\n        /* \"#utility.yul\":5248:5300   */\n      mstore\n        /* \"#utility.yul\":5131:5307   */\n      pop\n      jump\t// out\n        /* \"#utility.yul\":5313:5679   */\n    tag_59:\n        /* \"#utility.yul\":5455:5458   */\n      0x00\n        /* \"#utility.yul\":5476:5543   */\n      tag_130\n        /* \"#utility.yul\":5540:5542   */\n      0x1a\n        /* \"#utility.yul\":5535:5538   */\n      dup4\n        /* \"#utility.yul\":5476:5543   */\n      tag_57\n      jump\t// in\n    tag_130:\n        /* \"#utility.yul\":5469:5543   */\n      swap2\n      pop\n        /* \"#utility.yul\":5552:5645   */\n      tag_131\n        /* \"#utility.yul\":5641:5644   */\n      dup3\n        /* \"#utility.yul\":5552:5645   */\n      tag_58\n      jump\t// in\n    tag_131:\n        /* \"#utility.yul\":5670:5672   */\n      0x20\n        /* \"#utility.yul\":5665:5668   */\n      dup3\n        /* \"#utility.yul\":5661:5673   */\n      add\n        /* \"#utility.yul\":5654:5673   */\n      swap1\n      pop\n        /* \"#utility.yul\":5313:5679   */\n      swap2\n      swap1\n      pop\n      jump\t// out\n        /* \"#utility.yul\":5685:6104   */\n    tag_27:\n        /* \"#utility.yul\":5851:5855   */\n      0x00\n        /* \"#utility.yul\":5889:5891   */\n      0x20\n        /* \"#utility.yul\":5878:5887   */\n      dup3\n        /* \"#utility.yul\":5874:5892   */\n      add\n        /* \"#utility.yul\":5866:5892   */\n      swap1\n      pop\n        /* \"#utility.yul\":5938:5947   */\n      dup2\n        /* \"#utility.yul\":5932:5936   */\n      dup2\n        /* \"#utility.yul\":5928:5948   */\n      sub\n        /* \"#utility.yul\":5924:5925   */\n      0x00\n        /* \"#utility.yul\":5913:5922   */\n      dup4\n        /* \"#utility.yul\":5909:5926   */\n      add\n        /* \"#utility.yul\":5902:5949   */\n      mstore\n        /* \"#utility.yul\":5966:6097   */\n      tag_133\n        /* \"#utility.yul\":6092:6096   */\n      dup2\n        /* \"#utility.yul\":5966:6097   */\n      tag_59\n      jump\t// in\n    tag_133:\n        /* \"#utility.yul\":5958:6097   */\n      swap1\n      pop\n        /* \"#utility.yul\":5685:6104   */\n      swap2\n      swap1\n      pop\n      jump\t// out\n        /* \"#utility.yul\":6110:6333   */\n    tag_60:\n        /* \"#utility.yul\":6250:6284   */\n      0x496e73756666696369656e742062616c616e636520696e2074686520636f6e74\n        /* \"#utility.yul\":6246:6247   */\n      0x00\n        /* \"#utility.yul\":6238:6244   */\n      dup3\n        /* \"#utility.yul\":6234:6248   */\n      add\n        /* \"#utility.yul\":6227:6285   */\n      mstore\n        /* \"#utility.yul\":6319:6325   */\n      0x7261637400000000000000000000000000000000000000000000000000000000\n        /* \"#utility.yul\":6314:6316   */\n      0x20\n        /* \"#utility.yul\":6306:6312   */\n      dup3\n        /* \"#utility.yul\":6302:6317   */\n      add\n        /* \"#utility.yul\":6295:6326   */\n      mstore\n        /* \"#utility.yul\":6110:6333   */\n      pop\n      jump\t// out\n        /* \"#utility.yul\":6339:6705   */\n    tag_61:\n        /* \"#utility.yul\":6481:6484   */\n      0x00\n        /* \"#utility.yul\":6502:6569   */\n      tag_136\n        /* \"#utility.yul\":6566:6568   */\n      0x24\n        /* \"#utility.yul\":6561:6564   */\n      dup4\n        /* \"#utility.yul\":6502:6569   */\n      tag_57\n      jump\t// in\n    tag_136:\n        /* \"#utility.yul\":6495:6569   */\n      swap2\n      pop\n        /* \"#utility.yul\":6578:6671   */\n      tag_137\n        /* \"#utility.yul\":6667:6670   */\n      dup3\n        /* \"#utility.yul\":6578:6671   */\n      tag_60\n      jump\t// in\n    tag_137:\n        /* \"#utility.yul\":6696:6698   */\n      0x40\n        /* \"#utility.yul\":6691:6694   */\n      dup3\n        /* \"#utility.yul\":6687:6699   */\n      add\n        /* \"#utility.yul\":6680:6699   */\n      swap1\n      pop\n        /* \"#utility.yul\":6339:6705   */\n      swap2\n      swap1\n      pop\n      jump\t// out\n        /* \"#utility.yul\":6711:7130   */\n    tag_31:\n        /* \"#utility.yul\":6877:6881   */\n      0x00\n        /* \"#utility.yul\":6915:6917   */\n      0x20\n        /* \"#utility.yul\":6904:6913   */\n      dup3\n        /* \"#utility.yul\":6900:6918   */\n      add\n        /* \"#utility.yul\":6892:6918   */\n      swap1\n      pop\n        /* \"#utility.yul\":6964:6973   */\n      dup2\n        /* \"#utility.yul\":6958:6962   */\n      dup2\n        /* \"#utility.yul\":6954:6974   */\n      sub\n        /* \"#utility.yul\":6950:6951   */\n      0x00\n        /* \"#utility.yul\":6939:6948   */\n      dup4\n        /* \"#utility.yul\":6935:6952   */\n      add\n        /* \"#utility.yul\":6928:6975   */\n      mstore\n        /* \"#utility.yul\":6992:7123   */\n      tag_139\n        /* \"#utility.yul\":7118:7122   */\n      dup2\n        /* \"#utility.yul\":6992:7123   */\n      tag_61\n      jump\t// in\n    tag_139:\n        /* \"#utility.yul\":6984:7123   */\n      swap1\n      pop\n        /* \"#utility.yul\":6711:7130   */\n      swap2\n      swap1\n      pop\n      jump\t// out\n\n    auxdata: 0xa26469706673582212200243f62368e0ffb9cd79653f810d6a38f60626bf5c01a62e4a36173f0fba1c2564736f6c63430008120033\n}\n",
				"bytecode": {
					"linkReferences": {},
					"object": "60c060405234801561001057600080fd5b5060405161081538038061081583398181016040528101906100329190610104565b8173ffffffffffffffffffffffffffffffffffffffff1660808173ffffffffffffffffffffffffffffffffffffffff16815250508073ffffffffffffffffffffffffffffffffffffffff1660a08173ffffffffffffffffffffffffffffffffffffffff16815250505050610144565b600080fd5b600073ffffffffffffffffffffffffffffffffffffffff82169050919050565b60006100d1826100a6565b9050919050565b6100e1816100c6565b81146100ec57600080fd5b50565b6000815190506100fe816100d8565b92915050565b6000806040838503121561011b5761011a6100a1565b5b6000610129858286016100ef565b925050602061013a858286016100ef565b9150509250929050565b60805160a0516106af61016660003960005050600061018b01526106af6000f3fe6080604052600436106100345760003560e01c80633672c0d914610039578063b60d428814610079578063c58a6ce814610083575b600080fd5b34801561004557600080fd5b50610060600480360381019061005b9190610308565b6100ac565b60405161007094939291906103e0565b60405180910390f35b6100816100f6565b005b34801561008f57600080fd5b506100aa60048036038101906100a5919061048f565b610189565b005b60006020528060005260406000206000915090508060000154908060010160009054906101000a900460ff16908060010160019054906101000a900460ff16908060020154905084565b346000803373ffffffffffffffffffffffffffffffffffffffff1673ffffffffffffffffffffffffffffffffffffffff168152602001908152602001600020600001600082825461014791906104fe565b925050819055507ff4fef3c96e7d221891f3d9d3dff8d9a2b1efaabea4dc49b0cc01cda6df99ef0f333460405161017f929190610541565b60405180910390a1565b7f000000000000000000000000000000000000000000000000000000000000000073ffffffffffffffffffffffffffffffffffffffff163373ffffffffffffffffffffffffffffffffffffffff1614610217576040517f08c379a000000000000000000000000000000000000000000000000000000000815260040161020e906105c7565b60405180910390fd5b8147101561025a576040517f08c379a000000000000000000000000000000000000000000000000000000000815260040161025190610659565b60405180910390fd5b8073ffffffffffffffffffffffffffffffffffffffff166108fc839081150290604051600060405180830381858888f193505050501580156102a0573d6000803e3d6000fd5b505050565b600080fd5b600073ffffffffffffffffffffffffffffffffffffffff82169050919050565b60006102d5826102aa565b9050919050565b6102e5816102ca565b81146102f057600080fd5b50565b600081359050610302816102dc565b92915050565b60006020828403121561031e5761031d6102a5565b5b600061032c848285016102f3565b91505092915050565b6000819050919050565b61034881610335565b82525050565b7f4e487b7100000000000000000000000000000000000000000000000000000000600052602160045260246000fd5b6002811061038e5761038d61034e565b5b50565b600081905061039f8261037d565b919050565b60006103af82610391565b9050919050565b6103bf816103a4565b82525050565b60008115159050919050565b6103da816103c5565b82525050565b60006080820190506103f5600083018761033f565b61040260208301866103b6565b61040f60408301856103d1565b61041c606083018461033f565b95945050505050565b61042e81610335565b811461043957600080fd5b50565b60008135905061044b81610425565b92915050565b600061045c826102aa565b9050919050565b61046c81610451565b811461047757600080fd5b50565b60008135905061048981610463565b92915050565b600080604083850312156104a6576104a56102a5565b5b60006104b48582860161043c565b92505060206104c58582860161047a565b9150509250929050565b7f4e487b7100000000000000000000000000000000000000000000000000000000600052601160045260246000fd5b600061050982610335565b915061051483610335565b925082820190508082111561052c5761052b6104cf565b5b92915050565b61053b816102ca565b82525050565b60006040820190506105566000830185610532565b610563602083018461033f565b9392505050565b600082825260208201905092915050565b7f4572726f723a204f6e6c792041646d696e2043616e2043616c6c000000000000600082015250565b60006105b1601a8361056a565b91506105bc8261057b565b602082019050919050565b600060208201905081810360008301526105e0816105a4565b9050919050565b7f496e73756666696369656e742062616c616e636520696e2074686520636f6e7460008201527f7261637400000000000000000000000000000000000000000000000000000000602082015250565b600061064360248361056a565b915061064e826105e7565b604082019050919050565b6000602082019050818103600083015261067281610636565b905091905056fea26469706673582212200243f62368e0ffb9cd79653f810d6a38f60626bf5c01a62e4a36173f0fba1c2564736f6c63430008120033",
					"opcodes": "PUSH1 0xC0 PUSH1 0x40 MSTORE CALLVALUE DUP1 ISZERO PUSH2 0x10 JUMPI PUSH1 0x0 DUP1 REVERT JUMPDEST POP PUSH1 0x40 MLOAD PUSH2 0x815 CODESIZE SUB DUP1 PUSH2 0x815 DUP4 CODECOPY DUP2 DUP2 ADD PUSH1 0x40 MSTORE DUP2 ADD SWAP1 PUSH2 0x32 SWAP2 SWAP1 PUSH2 0x104 JUMP JUMPDEST DUP2 PUSH20 0xFFFFFFFFFFFFFFFFFFFFFFFFFFFFFFFFFFFFFFFF AND PUSH1 0x80 DUP2 PUSH20 0xFFFFFFFFFFFFFFFFFFFFFFFFFFFFFFFFFFFFFFFF AND DUP2 MSTORE POP POP DUP1 PUSH20 0xFFFFFFFFFFFFFFFFFFFFFFFFFFFFFFFFFFFFFFFF AND PUSH1 0xA0 DUP2 PUSH20 0xFFFFFFFFFFFFFFFFFFFFFFFFFFFFFFFFFFFFFFFF AND DUP2 MSTORE POP POP POP POP PUSH2 0x144 JUMP JUMPDEST PUSH1 0x0 DUP1 REVERT JUMPDEST PUSH1 0x0 PUSH20 0xFFFFFFFFFFFFFFFFFFFFFFFFFFFFFFFFFFFFFFFF DUP3 AND SWAP1 POP SWAP2 SWAP1 POP JUMP JUMPDEST PUSH1 0x0 PUSH2 0xD1 DUP3 PUSH2 0xA6 JUMP JUMPDEST SWAP1 POP SWAP2 SWAP1 POP JUMP JUMPDEST PUSH2 0xE1 DUP2 PUSH2 0xC6 JUMP JUMPDEST DUP2 EQ PUSH2 0xEC JUMPI PUSH1 0x0 DUP1 REVERT JUMPDEST POP JUMP JUMPDEST PUSH1 0x0 DUP2 MLOAD SWAP1 POP PUSH2 0xFE DUP2 PUSH2 0xD8 JUMP JUMPDEST SWAP3 SWAP2 POP POP JUMP JUMPDEST PUSH1 0x0 DUP1 PUSH1 0x40 DUP4 DUP6 SUB SLT ISZERO PUSH2 0x11B JUMPI PUSH2 0x11A PUSH2 0xA1 JUMP JUMPDEST JUMPDEST PUSH1 0x0 PUSH2 0x129 DUP6 DUP3 DUP7 ADD PUSH2 0xEF JUMP JUMPDEST SWAP3 POP POP PUSH1 0x20 PUSH2 0x13A DUP6 DUP3 DUP7 ADD PUSH2 0xEF JUMP JUMPDEST SWAP2 POP POP SWAP3 POP SWAP3 SWAP1 POP JUMP JUMPDEST PUSH1 0x80 MLOAD PUSH1 0xA0 MLOAD PUSH2 0x6AF PUSH2 0x166 PUSH1 0x0 CODECOPY PUSH1 0x0 POP POP PUSH1 0x0 PUSH2 0x18B ADD MSTORE PUSH2 0x6AF PUSH1 0x0 RETURN INVALID PUSH1 0x80 PUSH1 0x40 MSTORE PUSH1 0x4 CALLDATASIZE LT PUSH2 0x34 JUMPI PUSH1 0x0 CALLDATALOAD PUSH1 0xE0 SHR DUP1 PUSH4 0x3672C0D9 EQ PUSH2 0x39 JUMPI DUP1 PUSH4 0xB60D4288 EQ PUSH2 0x79 JUMPI DUP1 PUSH4 0xC58A6CE8 EQ PUSH2 0x83 JUMPI JUMPDEST PUSH1 0x0 DUP1 REVERT JUMPDEST CALLVALUE DUP1 ISZERO PUSH2 0x45 JUMPI PUSH1 0x0 DUP1 REVERT JUMPDEST POP PUSH2 0x60 PUSH1 0x4 DUP1 CALLDATASIZE SUB DUP2 ADD SWAP1 PUSH2 0x5B SWAP2 SWAP1 PUSH2 0x308 JUMP JUMPDEST PUSH2 0xAC JUMP JUMPDEST PUSH1 0x40 MLOAD PUSH2 0x70 SWAP5 SWAP4 SWAP3 SWAP2 SWAP1 PUSH2 0x3E0 JUMP JUMPDEST PUSH1 0x40 MLOAD DUP1 SWAP2 SUB SWAP1 RETURN JUMPDEST PUSH2 0x81 PUSH2 0xF6 JUMP JUMPDEST STOP JUMPDEST CALLVALUE DUP1 ISZERO PUSH2 0x8F JUMPI PUSH1 0x0 DUP1 REVERT JUMPDEST POP PUSH2 0xAA PUSH1 0x4 DUP1 CALLDATASIZE SUB DUP2 ADD SWAP1 PUSH2 0xA5 SWAP2 SWAP1 PUSH2 0x48F JUMP JUMPDEST PUSH2 0x189 JUMP JUMPDEST STOP JUMPDEST PUSH1 0x0 PUSH1 0x20 MSTORE DUP1 PUSH1 0x0 MSTORE PUSH1 0x40 PUSH1 0x0 KECCAK256 PUSH1 0x0 SWAP2 POP SWAP1 POP DUP1 PUSH1 0x0 ADD SLOAD SWAP1 DUP1 PUSH1 0x1 ADD PUSH1 0x0 SWAP1 SLOAD SWAP1 PUSH2 0x100 EXP SWAP1 DIV PUSH1 0xFF AND SWAP1 DUP1 PUSH1 0x1 ADD PUSH1 0x1 SWAP1 SLOAD SWAP1 PUSH2 0x100 EXP SWAP1 DIV PUSH1 0xFF AND SWAP1 DUP1 PUSH1 0x2 ADD SLOAD SWAP1 POP DUP5 JUMP JUMPDEST CALLVALUE PUSH1 0x0 DUP1 CALLER PUSH20 0xFFFFFFFFFFFFFFFFFFFFFFFFFFFFFFFFFFFFFFFF AND PUSH20 0xFFFFFFFFFFFFFFFFFFFFFFFFFFFFFFFFFFFFFFFF AND DUP2 MSTORE PUSH1 0x20 ADD SWAP1 DUP2 MSTORE PUSH1 0x20 ADD PUSH1 0x0 KECCAK256 PUSH1 0x0 ADD PUSH1 0x0 DUP3 DUP3 SLOAD PUSH2 0x147 SWAP2 SWAP1 PUSH2 0x4FE JUMP JUMPDEST SWAP3 POP POP DUP2 SWAP1 SSTORE POP PUSH32 0xF4FEF3C96E7D221891F3D9D3DFF8D9A2B1EFAABEA4DC49B0CC01CDA6DF99EF0F CALLER CALLVALUE PUSH1 0x40 MLOAD PUSH2 0x17F SWAP3 SWAP2 SWAP1 PUSH2 0x541 JUMP JUMPDEST PUSH1 0x40 MLOAD DUP1 SWAP2 SUB SWAP1 LOG1 JUMP JUMPDEST PUSH32 0x0 PUSH20 0xFFFFFFFFFFFFFFFFFFFFFFFFFFFFFFFFFFFFFFFF AND CALLER PUSH20 0xFFFFFFFFFFFFFFFFFFFFFFFFFFFFFFFFFFFFFFFF AND EQ PUSH2 0x217 JUMPI PUSH1 0x40 MLOAD PUSH32 0x8C379A000000000000000000000000000000000000000000000000000000000 DUP2 MSTORE PUSH1 0x4 ADD PUSH2 0x20E SWAP1 PUSH2 0x5C7 JUMP JUMPDEST PUSH1 0x40 MLOAD DUP1 SWAP2 SUB SWAP1 REVERT JUMPDEST DUP2 SELFBALANCE LT ISZERO PUSH2 0x25A JUMPI PUSH1 0x40 MLOAD PUSH32 0x8C379A000000000000000000000000000000000000000000000000000000000 DUP2 MSTORE PUSH1 0x4 ADD PUSH2 0x251 SWAP1 PUSH2 0x659 JUMP JUMPDEST PUSH1 0x40 MLOAD DUP1 SWAP2 SUB SWAP1 REVERT JUMPDEST DUP1 PUSH20 0xFFFFFFFFFFFFFFFFFFFFFFFFFFFFFFFFFFFFFFFF AND PUSH2 0x8FC DUP4 SWAP1 DUP2 ISZERO MUL SWAP1 PUSH1 0x40 MLOAD PUSH1 0x0 PUSH1 0x40 MLOAD DUP1 DUP4 SUB DUP2 DUP6 DUP9 DUP9 CALL SWAP4 POP POP POP POP ISZERO DUP1 ISZERO PUSH2 0x2A0 JUMPI RETURNDATASIZE PUSH1 0x0 DUP1 RETURNDATACOPY RETURNDATASIZE PUSH1 0x0 REVERT JUMPDEST POP POP POP JUMP JUMPDEST PUSH1 0x0 DUP1 REVERT JUMPDEST PUSH1 0x0 PUSH20 0xFFFFFFFFFFFFFFFFFFFFFFFFFFFFFFFFFFFFFFFF DUP3 AND SWAP1 POP SWAP2 SWAP1 POP JUMP JUMPDEST PUSH1 0x0 PUSH2 0x2D5 DUP3 PUSH2 0x2AA JUMP JUMPDEST SWAP1 POP SWAP2 SWAP1 POP JUMP JUMPDEST PUSH2 0x2E5 DUP2 PUSH2 0x2CA JUMP JUMPDEST DUP2 EQ PUSH2 0x2F0 JUMPI PUSH1 0x0 DUP1 REVERT JUMPDEST POP JUMP JUMPDEST PUSH1 0x0 DUP2 CALLDATALOAD SWAP1 POP PUSH2 0x302 DUP2 PUSH2 0x2DC JUMP JUMPDEST SWAP3 SWAP2 POP POP JUMP JUMPDEST PUSH1 0x0 PUSH1 0x20 DUP3 DUP5 SUB SLT ISZERO PUSH2 0x31E JUMPI PUSH2 0x31D PUSH2 0x2A5 JUMP JUMPDEST JUMPDEST PUSH1 0x0 PUSH2 0x32C DUP5 DUP3 DUP6 ADD PUSH2 0x2F3 JUMP JUMPDEST SWAP2 POP POP SWAP3 SWAP2 POP POP JUMP JUMPDEST PUSH1 0x0 DUP2 SWAP1 POP SWAP2 SWAP1 POP JUMP JUMPDEST PUSH2 0x348 DUP2 PUSH2 0x335 JUMP JUMPDEST DUP3 MSTORE POP POP JUMP JUMPDEST PUSH32 0x4E487B7100000000000000000000000000000000000000000000000000000000 PUSH1 0x0 MSTORE PUSH1 0x21 PUSH1 0x4 MSTORE PUSH1 0x24 PUSH1 0x0 REVERT JUMPDEST PUSH1 0x2 DUP2 LT PUSH2 0x38E JUMPI PUSH2 0x38D PUSH2 0x34E JUMP JUMPDEST JUMPDEST POP JUMP JUMPDEST PUSH1 0x0 DUP2 SWAP1 POP PUSH2 0x39F DUP3 PUSH2 0x37D JUMP JUMPDEST SWAP2 SWAP1 POP JUMP JUMPDEST PUSH1 0x0 PUSH2 0x3AF DUP3 PUSH2 0x391 JUMP JUMPDEST SWAP1 POP SWAP2 SWAP1 POP JUMP JUMPDEST PUSH2 0x3BF DUP2 PUSH2 0x3A4 JUMP JUMPDEST DUP3 MSTORE POP POP JUMP JUMPDEST PUSH1 0x0 DUP2 ISZERO ISZERO SWAP1 POP SWAP2 SWAP1 POP JUMP JUMPDEST PUSH2 0x3DA DUP2 PUSH2 0x3C5 JUMP JUMPDEST DUP3 MSTORE POP POP JUMP JUMPDEST PUSH1 0x0 PUSH1 0x80 DUP3 ADD SWAP1 POP PUSH2 0x3F5 PUSH1 0x0 DUP4 ADD DUP8 PUSH2 0x33F JUMP JUMPDEST PUSH2 0x402 PUSH1 0x20 DUP4 ADD DUP7 PUSH2 0x3B6 JUMP JUMPDEST PUSH2 0x40F PUSH1 0x40 DUP4 ADD DUP6 PUSH2 0x3D1 JUMP JUMPDEST PUSH2 0x41C PUSH1 0x60 DUP4 ADD DUP5 PUSH2 0x33F JUMP JUMPDEST SWAP6 SWAP5 POP POP POP POP POP JUMP JUMPDEST PUSH2 0x42E DUP2 PUSH2 0x335 JUMP JUMPDEST DUP2 EQ PUSH2 0x439 JUMPI PUSH1 0x0 DUP1 REVERT JUMPDEST POP JUMP JUMPDEST PUSH1 0x0 DUP2 CALLDATALOAD SWAP1 POP PUSH2 0x44B DUP2 PUSH2 0x425 JUMP JUMPDEST SWAP3 SWAP2 POP POP JUMP JUMPDEST PUSH1 0x0 PUSH2 0x45C DUP3 PUSH2 0x2AA JUMP JUMPDEST SWAP1 POP SWAP2 SWAP1 POP JUMP JUMPDEST PUSH2 0x46C DUP2 PUSH2 0x451 JUMP JUMPDEST DUP2 EQ PUSH2 0x477 JUMPI PUSH1 0x0 DUP1 REVERT JUMPDEST POP JUMP JUMPDEST PUSH1 0x0 DUP2 CALLDATALOAD SWAP1 POP PUSH2 0x489 DUP2 PUSH2 0x463 JUMP JUMPDEST SWAP3 SWAP2 POP POP JUMP JUMPDEST PUSH1 0x0 DUP1 PUSH1 0x40 DUP4 DUP6 SUB SLT ISZERO PUSH2 0x4A6 JUMPI PUSH2 0x4A5 PUSH2 0x2A5 JUMP JUMPDEST JUMPDEST PUSH1 0x0 PUSH2 0x4B4 DUP6 DUP3 DUP7 ADD PUSH2 0x43C JUMP JUMPDEST SWAP3 POP POP PUSH1 0x20 PUSH2 0x4C5 DUP6 DUP3 DUP7 ADD PUSH2 0x47A JUMP JUMPDEST SWAP2 POP POP SWAP3 POP SWAP3 SWAP1 POP JUMP JUMPDEST PUSH32 0x4E487B7100000000000000000000000000000000000000000000000000000000 PUSH1 0x0 MSTORE PUSH1 0x11 PUSH1 0x4 MSTORE PUSH1 0x24 PUSH1 0x0 REVERT JUMPDEST PUSH1 0x0 PUSH2 0x509 DUP3 PUSH2 0x335 JUMP JUMPDEST SWAP2 POP PUSH2 0x514 DUP4 PUSH2 0x335 JUMP JUMPDEST SWAP3 POP DUP3 DUP3 ADD SWAP1 POP DUP1 DUP3 GT ISZERO PUSH2 0x52C JUMPI PUSH2 0x52B PUSH2 0x4CF JUMP JUMPDEST JUMPDEST SWAP3 SWAP2 POP POP JUMP JUMPDEST PUSH2 0x53B DUP2 PUSH2 0x2CA JUMP JUMPDEST DUP3 MSTORE POP POP JUMP JUMPDEST PUSH1 0x0 PUSH1 0x40 DUP3 ADD SWAP1 POP PUSH2 0x556 PUSH1 0x0 DUP4 ADD DUP6 PUSH2 0x532 JUMP JUMPDEST PUSH2 0x563 PUSH1 0x20 DUP4 ADD DUP5 PUSH2 0x33F JUMP JUMPDEST SWAP4 SWAP3 POP POP POP JUMP JUMPDEST PUSH1 0x0 DUP3 DUP3 MSTORE PUSH1 0x20 DUP3 ADD SWAP1 POP SWAP3 SWAP2 POP POP JUMP JUMPDEST PUSH32 0x4572726F723A204F6E6C792041646D696E2043616E2043616C6C000000000000 PUSH1 0x0 DUP3 ADD MSTORE POP JUMP JUMPDEST PUSH1 0x0 PUSH2 0x5B1 PUSH1 0x1A DUP4 PUSH2 0x56A JUMP JUMPDEST SWAP2 POP PUSH2 0x5BC DUP3 PUSH2 0x57B JUMP JUMPDEST PUSH1 0x20 DUP3 ADD SWAP1 POP SWAP2 SWAP1 POP JUMP JUMPDEST PUSH1 0x0 PUSH1 0x20 DUP3 ADD SWAP1 POP DUP2 DUP2 SUB PUSH1 0x0 DUP4 ADD MSTORE PUSH2 0x5E0 DUP2 PUSH2 0x5A4 JUMP JUMPDEST SWAP1 POP SWAP2 SWAP1 POP JUMP JUMPDEST PUSH32 0x496E73756666696369656E742062616C616E636520696E2074686520636F6E74 PUSH1 0x0 DUP3 ADD MSTORE PUSH32 0x7261637400000000000000000000000000000000000000000000000000000000 PUSH1 0x20 DUP3 ADD MSTORE POP JUMP JUMPDEST PUSH1 0x0 PUSH2 0x643 PUSH1 0x24 DUP4 PUSH2 0x56A JUMP JUMPDEST SWAP2 POP PUSH2 0x64E DUP3 PUSH2 0x5E7 JUMP JUMPDEST PUSH1 0x40 DUP3 ADD SWAP1 POP SWAP2 SWAP1 POP JUMP JUMPDEST PUSH1 0x0 PUSH1 0x20 DUP3 ADD SWAP1 POP DUP2 DUP2 SUB PUSH1 0x0 DUP4 ADD MSTORE PUSH2 0x672 DUP2 PUSH2 0x636 JUMP JUMPDEST SWAP1 POP SWAP2 SWAP1 POP JUMP INVALID LOG2 PUSH5 0x6970667358 0x22 SLT KECCAK256 MUL NUMBER 0xF6 0x23 PUSH9 0xE0FFB9CD79653F810D PUSH11 0x38F60626BF5C01A62E4A36 OR EXTCODEHASH 0xF 0xBA SHR 0x25 PUSH5 0x736F6C6343 STOP ADDMOD SLT STOP CALLER "
				},
				"gasEstimates": {
					"creation": {
						"codeDepositCost": "342200",
						"executionCost": "infinite",
						"totalCost": "infinite"
					},
					"external": {
						"fund()": "infinite",
						"sendPayment(uint256,address)": "infinite",
						"taxPayerMap(address)": "infinite"
					}
				},
				"methodIdentifiers": {
					"fund()": "b60d4288",
					"sendPayment(uint256,address)": "c58a6ce8",
					"taxPayerMap(address)": "3672c0d9"
				}
			},
			"storageLayout": {
				"storage": [
					{
						"astId": 51,
						"contract": "FirstSmartContract.sol:Budget",
						"label": "taxPayerMap",
						"offset": 0,
						"slot": "0",
						"type": "t_mapping(t_address,t_struct(TaxPayer)14_storage)"
					}
				],
				"types": {
					"t_address": {
						"encoding": "inplace",
						"label": "address",
						"numberOfBytes": "20"
					},
					"t_bool": {
						"encoding": "inplace",
						"label": "bool",
						"numberOfBytes": "1"
					},
					"t_enum(TaxPayerType)4": {
						"encoding": "inplace",
						"label": "enum Budget.TaxPayerType",
						"numberOfBytes": "1"
					},
					"t_mapping(t_address,t_struct(TaxPayer)14_storage)": {
						"encoding": "mapping",
						"key": "t_address",
						"label": "mapping(address => struct Budget.TaxPayer)",
						"numberOfBytes": "32",
						"value": "t_struct(TaxPayer)14_storage"
					},
					"t_struct(TaxPayer)14_storage": {
						"encoding": "inplace",
						"label": "struct Budget.TaxPayer",
						"members": [
							{
								"astId": 6,
								"contract": "FirstSmartContract.sol:Budget",
								"label": "taxAmount",
								"offset": 0,
								"slot": "0",
								"type": "t_uint256"
							},
							{
								"astId": 9,
								"contract": "FirstSmartContract.sol:Budget",
								"label": "taxPayerType",
								"offset": 0,
								"slot": "1",
								"type": "t_enum(TaxPayerType)4"
							},
							{
								"astId": 11,
								"contract": "FirstSmartContract.sol:Budget",
								"label": "voted",
								"offset": 1,
								"slot": "1",
								"type": "t_bool"
							},
							{
								"astId": 13,
								"contract": "FirstSmartContract.sol:Budget",
								"label": "vote",
								"offset": 0,
								"slot": "2",
								"type": "t_uint256"
							}
						],
						"numberOfBytes": "96"
					},
					"t_uint256": {
						"encoding": "inplace",
						"label": "uint256",
						"numberOfBytes": "32"
					}
				}
			},
			"userdoc": {
				"kind": "user",
				"methods": {},
				"version": 1
			}
		}
	}
}