{
	"data": {
		"bytecode": {
			"linkReferences": {},
			"object": "60c060405234801561001057600080fd5b5060405161075d38038061075d83398181016040528101906100329190610104565b8173ffffffffffffffffffffffffffffffffffffffff1660808173ffffffffffffffffffffffffffffffffffffffff16815250508073ffffffffffffffffffffffffffffffffffffffff1660a08173ffffffffffffffffffffffffffffffffffffffff16815250505050610144565b600080fd5b600073ffffffffffffffffffffffffffffffffffffffff82169050919050565b60006100d1826100a6565b9050919050565b6100e1816100c6565b81146100ec57600080fd5b50565b6000815190506100fe816100d8565b92915050565b6000806040838503121561011b5761011a6100a1565b5b6000610129858286016100ef565b925050602061013a858286016100ef565b9150509250929050565b60805160a0516105f56101686000396000609a0152600061012a01526105f56000f3fe6080604052600436106100345760003560e01c80633ccfd60b1461003957806358b56c3714610050578063b60d42881461008e575b600080fd5b34801561004557600080fd5b5061004e610098565b005b34801561005c57600080fd5b50610077600480360381019061007291906103af565b6101f5565b604051610085929190610404565b60405180910390f35b610096610239565b005b7f000000000000000000000000000000000000000000000000000000000000000073ffffffffffffffffffffffffffffffffffffffff163373ffffffffffffffffffffffffffffffffffffffff1614610126576040517f08c379a000000000000000000000000000000000000000000000000000000000815260040161011d9061048a565b60405180910390fd5b60007f000000000000000000000000000000000000000000000000000000000000000073ffffffffffffffffffffffffffffffffffffffff164760405161016c906104db565b60006040518083038185875af1925050503d80600081146101a9576040519150601f19603f3d011682016040523d82523d6000602084013e6101ae565b606091505b50509050806101f2576040517f08c379a00000000000000000000000000000000000000000000000000000000081526004016101e99061053c565b60405180910390fd5b50565b60006020528060005260406000206000915090508060000160009054906101000a900473ffffffffffffffffffffffffffffffffffffffff16908060010154905082565b336000803373ffffffffffffffffffffffffffffffffffffffff1673ffffffffffffffffffffffffffffffffffffffff16815260200190815260200160002060000160006101000a81548173ffffffffffffffffffffffffffffffffffffffff021916908373ffffffffffffffffffffffffffffffffffffffff160217905550346000803373ffffffffffffffffffffffffffffffffffffffff1673ffffffffffffffffffffffffffffffffffffffff168152602001908152602001600020600101600082825461030a919061058b565b925050819055507f2a01595cddf097c90216094025db714da3f4e5bd8877b56ba86a24ecead8e5433334604051610342929190610404565b60405180910390a1565b600080fd5b600073ffffffffffffffffffffffffffffffffffffffff82169050919050565b600061037c82610351565b9050919050565b61038c81610371565b811461039757600080fd5b50565b6000813590506103a981610383565b92915050565b6000602082840312156103c5576103c461034c565b5b60006103d38482850161039a565b91505092915050565b6103e581610371565b82525050565b6000819050919050565b6103fe816103eb565b82525050565b600060408201905061041960008301856103dc565b61042660208301846103f5565b9392505050565b600082825260208201905092915050565b7f4572726f723a204f6e6c792041646d696e2043616e2043616c6c000000000000600082015250565b6000610474601a8361042d565b915061047f8261043e565b602082019050919050565b600060208201905081810360008301526104a381610467565b9050919050565b600081905092915050565b50565b60006104c56000836104aa565b91506104d0826104b5565b600082019050919050565b60006104e6826104b8565b9150819050919050565b7f4661696c656420746f2073656e64204574686572000000000000000000000000600082015250565b600061052660148361042d565b9150610531826104f0565b602082019050919050565b6000602082019050818103600083015261055581610519565b9050919050565b7f4e487b7100000000000000000000000000000000000000000000000000000000600052601160045260246000fd5b6000610596826103eb565b91506105a1836103eb565b92508282019050808211156105b9576105b861055c565b5b9291505056fea26469706673582212203095fd7c12fa1c71f8f39f91fac788b6082434d68b0c8733fe4efd4ceac124ba64736f6c63430008120033",
			"opcodes": "PUSH1 0xC0 PUSH1 0x40 MSTORE CALLVALUE DUP1 ISZERO PUSH2 0x10 JUMPI PUSH1 0x0 DUP1 REVERT JUMPDEST POP PUSH1 0x40 MLOAD PUSH2 0x75D CODESIZE SUB DUP1 PUSH2 0x75D DUP4 CODECOPY DUP2 DUP2 ADD PUSH1 0x40 MSTORE DUP2 ADD SWAP1 PUSH2 0x32 SWAP2 SWAP1 PUSH2 0x104 JUMP JUMPDEST DUP2 PUSH20 0xFFFFFFFFFFFFFFFFFFFFFFFFFFFFFFFFFFFFFFFF AND PUSH1 0x80 DUP2 PUSH20 0xFFFFFFFFFFFFFFFFFFFFFFFFFFFFFFFFFFFFFFFF AND DUP2 MSTORE POP POP DUP1 PUSH20 0xFFFFFFFFFFFFFFFFFFFFFFFFFFFFFFFFFFFFFFFF AND PUSH1 0xA0 DUP2 PUSH20 0xFFFFFFFFFFFFFFFFFFFFFFFFFFFFFFFFFFFFFFFF AND DUP2 MSTORE POP POP POP POP PUSH2 0x144 JUMP JUMPDEST PUSH1 0x0 DUP1 REVERT JUMPDEST PUSH1 0x0 PUSH20 0xFFFFFFFFFFFFFFFFFFFFFFFFFFFFFFFFFFFFFFFF DUP3 AND SWAP1 POP SWAP2 SWAP1 POP JUMP JUMPDEST PUSH1 0x0 PUSH2 0xD1 DUP3 PUSH2 0xA6 JUMP JUMPDEST SWAP1 POP SWAP2 SWAP1 POP JUMP JUMPDEST PUSH2 0xE1 DUP2 PUSH2 0xC6 JUMP JUMPDEST DUP2 EQ PUSH2 0xEC JUMPI PUSH1 0x0 DUP1 REVERT JUMPDEST POP JUMP JUMPDEST PUSH1 0x0 DUP2 MLOAD SWAP1 POP PUSH2 0xFE DUP2 PUSH2 0xD8 JUMP JUMPDEST SWAP3 SWAP2 POP POP JUMP JUMPDEST PUSH1 0x0 DUP1 PUSH1 0x40 DUP4 DUP6 SUB SLT ISZERO PUSH2 0x11B JUMPI PUSH2 0x11A PUSH2 0xA1 JUMP JUMPDEST JUMPDEST PUSH1 0x0 PUSH2 0x129 DUP6 DUP3 DUP7 ADD PUSH2 0xEF JUMP JUMPDEST SWAP3 POP POP PUSH1 0x20 PUSH2 0x13A DUP6 DUP3 DUP7 ADD PUSH2 0xEF JUMP JUMPDEST SWAP2 POP POP SWAP3 POP SWAP3 SWAP1 POP JUMP JUMPDEST PUSH1 0x80 MLOAD PUSH1 0xA0 MLOAD PUSH2 0x5F5 PUSH2 0x168 PUSH1 0x0 CODECOPY PUSH1 0x0 PUSH1 0x9A ADD MSTORE PUSH1 0x0 PUSH2 0x12A ADD MSTORE PUSH2 0x5F5 PUSH1 0x0 RETURN INVALID PUSH1 0x80 PUSH1 0x40 MSTORE PUSH1 0x4 CALLDATASIZE LT PUSH2 0x34 JUMPI PUSH1 0x0 CALLDATALOAD PUSH1 0xE0 SHR DUP1 PUSH4 0x3CCFD60B EQ PUSH2 0x39 JUMPI DUP1 PUSH4 0x58B56C37 EQ PUSH2 0x50 JUMPI DUP1 PUSH4 0xB60D4288 EQ PUSH2 0x8E JUMPI JUMPDEST PUSH1 0x0 DUP1 REVERT JUMPDEST CALLVALUE DUP1 ISZERO PUSH2 0x45 JUMPI PUSH1 0x0 DUP1 REVERT JUMPDEST POP PUSH2 0x4E PUSH2 0x98 JUMP JUMPDEST STOP JUMPDEST CALLVALUE DUP1 ISZERO PUSH2 0x5C JUMPI PUSH1 0x0 DUP1 REVERT JUMPDEST POP PUSH2 0x77 PUSH1 0x4 DUP1 CALLDATASIZE SUB DUP2 ADD SWAP1 PUSH2 0x72 SWAP2 SWAP1 PUSH2 0x3AF JUMP JUMPDEST PUSH2 0x1F5 JUMP JUMPDEST PUSH1 0x40 MLOAD PUSH2 0x85 SWAP3 SWAP2 SWAP1 PUSH2 0x404 JUMP JUMPDEST PUSH1 0x40 MLOAD DUP1 SWAP2 SUB SWAP1 RETURN JUMPDEST PUSH2 0x96 PUSH2 0x239 JUMP JUMPDEST STOP JUMPDEST PUSH32 0x0 PUSH20 0xFFFFFFFFFFFFFFFFFFFFFFFFFFFFFFFFFFFFFFFF AND CALLER PUSH20 0xFFFFFFFFFFFFFFFFFFFFFFFFFFFFFFFFFFFFFFFF AND EQ PUSH2 0x126 JUMPI PUSH1 0x40 MLOAD PUSH32 0x8C379A000000000000000000000000000000000000000000000000000000000 DUP2 MSTORE PUSH1 0x4 ADD PUSH2 0x11D SWAP1 PUSH2 0x48A JUMP JUMPDEST PUSH1 0x40 MLOAD DUP1 SWAP2 SUB SWAP1 REVERT JUMPDEST PUSH1 0x0 PUSH32 0x0 PUSH20 0xFFFFFFFFFFFFFFFFFFFFFFFFFFFFFFFFFFFFFFFF AND SELFBALANCE PUSH1 0x40 MLOAD PUSH2 0x16C SWAP1 PUSH2 0x4DB JUMP JUMPDEST PUSH1 0x0 PUSH1 0x40 MLOAD DUP1 DUP4 SUB DUP2 DUP6 DUP8 GAS CALL SWAP3 POP POP POP RETURNDATASIZE DUP1 PUSH1 0x0 DUP2 EQ PUSH2 0x1A9 JUMPI PUSH1 0x40 MLOAD SWAP2 POP PUSH1 0x1F NOT PUSH1 0x3F RETURNDATASIZE ADD AND DUP3 ADD PUSH1 0x40 MSTORE RETURNDATASIZE DUP3 MSTORE RETURNDATASIZE PUSH1 0x0 PUSH1 0x20 DUP5 ADD RETURNDATACOPY PUSH2 0x1AE JUMP JUMPDEST PUSH1 0x60 SWAP2 POP JUMPDEST POP POP SWAP1 POP DUP1 PUSH2 0x1F2 JUMPI PUSH1 0x40 MLOAD PUSH32 0x8C379A000000000000000000000000000000000000000000000000000000000 DUP2 MSTORE PUSH1 0x4 ADD PUSH2 0x1E9 SWAP1 PUSH2 0x53C JUMP JUMPDEST PUSH1 0x40 MLOAD DUP1 SWAP2 SUB SWAP1 REVERT JUMPDEST POP JUMP JUMPDEST PUSH1 0x0 PUSH1 0x20 MSTORE DUP1 PUSH1 0x0 MSTORE PUSH1 0x40 PUSH1 0x0 KECCAK256 PUSH1 0x0 SWAP2 POP SWAP1 POP DUP1 PUSH1 0x0 ADD PUSH1 0x0 SWAP1 SLOAD SWAP1 PUSH2 0x100 EXP SWAP1 DIV PUSH20 0xFFFFFFFFFFFFFFFFFFFFFFFFFFFFFFFFFFFFFFFF AND SWAP1 DUP1 PUSH1 0x1 ADD SLOAD SWAP1 POP DUP3 JUMP JUMPDEST CALLER PUSH1 0x0 DUP1 CALLER PUSH20 0xFFFFFFFFFFFFFFFFFFFFFFFFFFFFFFFFFFFFFFFF AND PUSH20 0xFFFFFFFFFFFFFFFFFFFFFFFFFFFFFFFFFFFFFFFF AND DUP2 MSTORE PUSH1 0x20 ADD SWAP1 DUP2 MSTORE PUSH1 0x20 ADD PUSH1 0x0 KECCAK256 PUSH1 0x0 ADD PUSH1 0x0 PUSH2 0x100 EXP DUP2 SLOAD DUP2 PUSH20 0xFFFFFFFFFFFFFFFFFFFFFFFFFFFFFFFFFFFFFFFF MUL NOT AND SWAP1 DUP4 PUSH20 0xFFFFFFFFFFFFFFFFFFFFFFFFFFFFFFFFFFFFFFFF AND MUL OR SWAP1 SSTORE POP CALLVALUE PUSH1 0x0 DUP1 CALLER PUSH20 0xFFFFFFFFFFFFFFFFFFFFFFFFFFFFFFFFFFFFFFFF AND PUSH20 0xFFFFFFFFFFFFFFFFFFFFFFFFFFFFFFFFFFFFFFFF AND DUP2 MSTORE PUSH1 0x20 ADD SWAP1 DUP2 MSTORE PUSH1 0x20 ADD PUSH1 0x0 KECCAK256 PUSH1 0x1 ADD PUSH1 0x0 DUP3 DUP3 SLOAD PUSH2 0x30A SWAP2 SWAP1 PUSH2 0x58B JUMP JUMPDEST SWAP3 POP POP DUP2 SWAP1 SSTORE POP PUSH32 0x2A01595CDDF097C90216094025DB714DA3F4E5BD8877B56BA86A24ECEAD8E543 CALLER CALLVALUE PUSH1 0x40 MLOAD PUSH2 0x342 SWAP3 SWAP2 SWAP1 PUSH2 0x404 JUMP JUMPDEST PUSH1 0x40 MLOAD DUP1 SWAP2 SUB SWAP1 LOG1 JUMP JUMPDEST PUSH1 0x0 DUP1 REVERT JUMPDEST PUSH1 0x0 PUSH20 0xFFFFFFFFFFFFFFFFFFFFFFFFFFFFFFFFFFFFFFFF DUP3 AND SWAP1 POP SWAP2 SWAP1 POP JUMP JUMPDEST PUSH1 0x0 PUSH2 0x37C DUP3 PUSH2 0x351 JUMP JUMPDEST SWAP1 POP SWAP2 SWAP1 POP JUMP JUMPDEST PUSH2 0x38C DUP2 PUSH2 0x371 JUMP JUMPDEST DUP2 EQ PUSH2 0x397 JUMPI PUSH1 0x0 DUP1 REVERT JUMPDEST POP JUMP JUMPDEST PUSH1 0x0 DUP2 CALLDATALOAD SWAP1 POP PUSH2 0x3A9 DUP2 PUSH2 0x383 JUMP JUMPDEST SWAP3 SWAP2 POP POP JUMP JUMPDEST PUSH1 0x0 PUSH1 0x20 DUP3 DUP5 SUB SLT ISZERO PUSH2 0x3C5 JUMPI PUSH2 0x3C4 PUSH2 0x34C JUMP JUMPDEST JUMPDEST PUSH1 0x0 PUSH2 0x3D3 DUP5 DUP3 DUP6 ADD PUSH2 0x39A JUMP JUMPDEST SWAP2 POP POP SWAP3 SWAP2 POP POP JUMP JUMPDEST PUSH2 0x3E5 DUP2 PUSH2 0x371 JUMP JUMPDEST DUP3 MSTORE POP POP JUMP JUMPDEST PUSH1 0x0 DUP2 SWAP1 POP SWAP2 SWAP1 POP JUMP JUMPDEST PUSH2 0x3FE DUP2 PUSH2 0x3EB JUMP JUMPDEST DUP3 MSTORE POP POP JUMP JUMPDEST PUSH1 0x0 PUSH1 0x40 DUP3 ADD SWAP1 POP PUSH2 0x419 PUSH1 0x0 DUP4 ADD DUP6 PUSH2 0x3DC JUMP JUMPDEST PUSH2 0x426 PUSH1 0x20 DUP4 ADD DUP5 PUSH2 0x3F5 JUMP JUMPDEST SWAP4 SWAP3 POP POP POP JUMP JUMPDEST PUSH1 0x0 DUP3 DUP3 MSTORE PUSH1 0x20 DUP3 ADD SWAP1 POP SWAP3 SWAP2 POP POP JUMP JUMPDEST PUSH32 0x4572726F723A204F6E6C792041646D696E2043616E2043616C6C000000000000 PUSH1 0x0 DUP3 ADD MSTORE POP JUMP JUMPDEST PUSH1 0x0 PUSH2 0x474 PUSH1 0x1A DUP4 PUSH2 0x42D JUMP JUMPDEST SWAP2 POP PUSH2 0x47F DUP3 PUSH2 0x43E JUMP JUMPDEST PUSH1 0x20 DUP3 ADD SWAP1 POP SWAP2 SWAP1 POP JUMP JUMPDEST PUSH1 0x0 PUSH1 0x20 DUP3 ADD SWAP1 POP DUP2 DUP2 SUB PUSH1 0x0 DUP4 ADD MSTORE PUSH2 0x4A3 DUP2 PUSH2 0x467 JUMP JUMPDEST SWAP1 POP SWAP2 SWAP1 POP JUMP JUMPDEST PUSH1 0x0 DUP2 SWAP1 POP SWAP3 SWAP2 POP POP JUMP JUMPDEST POP JUMP JUMPDEST PUSH1 0x0 PUSH2 0x4C5 PUSH1 0x0 DUP4 PUSH2 0x4AA JUMP JUMPDEST SWAP2 POP PUSH2 0x4D0 DUP3 PUSH2 0x4B5 JUMP JUMPDEST PUSH1 0x0 DUP3 ADD SWAP1 POP SWAP2 SWAP1 POP JUMP JUMPDEST PUSH1 0x0 PUSH2 0x4E6 DUP3 PUSH2 0x4B8 JUMP JUMPDEST SWAP2 POP DUP2 SWAP1 POP SWAP2 SWAP1 POP JUMP JUMPDEST PUSH32 0x4661696C656420746F2073656E64204574686572000000000000000000000000 PUSH1 0x0 DUP3 ADD MSTORE POP JUMP JUMPDEST PUSH1 0x0 PUSH2 0x526 PUSH1 0x14 DUP4 PUSH2 0x42D JUMP JUMPDEST SWAP2 POP PUSH2 0x531 DUP3 PUSH2 0x4F0 JUMP JUMPDEST PUSH1 0x20 DUP3 ADD SWAP1 POP SWAP2 SWAP1 POP JUMP JUMPDEST PUSH1 0x0 PUSH1 0x20 DUP3 ADD SWAP1 POP DUP2 DUP2 SUB PUSH1 0x0 DUP4 ADD MSTORE PUSH2 0x555 DUP2 PUSH2 0x519 JUMP JUMPDEST SWAP1 POP SWAP2 SWAP1 POP JUMP JUMPDEST PUSH32 0x4E487B7100000000000000000000000000000000000000000000000000000000 PUSH1 0x0 MSTORE PUSH1 0x11 PUSH1 0x4 MSTORE PUSH1 0x24 PUSH1 0x0 REVERT JUMPDEST PUSH1 0x0 PUSH2 0x596 DUP3 PUSH2 0x3EB JUMP JUMPDEST SWAP2 POP PUSH2 0x5A1 DUP4 PUSH2 0x3EB JUMP JUMPDEST SWAP3 POP DUP3 DUP3 ADD SWAP1 POP DUP1 DUP3 GT ISZERO PUSH2 0x5B9 JUMPI PUSH2 0x5B8 PUSH2 0x55C JUMP JUMPDEST JUMPDEST SWAP3 SWAP2 POP POP JUMP INVALID LOG2 PUSH5 0x6970667358 0x22 SLT KECCAK256 ADDRESS SWAP6 REVERT PUSH29 0x12FA1C71F8F39F91FAC788B6082434D68B0C8733FE4EFD4CEAC124BA64 PUSH20 0x6F6C634300081200330000000000000000000000 "
		},
		"gasEstimates": {
			"creation": {
				"codeDepositCost": "305000",
				"executionCost": "infinite",
				"totalCost": "infinite"
			},
			"external": {
				"donationDetails(address)": "infinite",
				"fund()": "infinite",
				"withdraw()": "infinite"
			}
		},
		"methodIdentifiers": {
			"donationDetails(address)": "58b56c37",
			"fund()": "b60d4288",
			"withdraw()": "3ccfd60b"
		}
	},
	"abi": [
		{
			"inputs": [
				{
					"internalType": "address",
					"name": "unicefAddress",
					"type": "address"
				},
				{
					"internalType": "address",
					"name": "multiSig",
					"type": "address"
				}
			],
			"stateMutability": "nonpayable",
			"type": "constructor"
		},
		{
			"anonymous": false,
			"inputs": [
				{
					"indexed": false,
					"internalType": "address",
					"name": "donator",
					"type": "address"
				},
				{
					"indexed": false,
					"internalType": "uint256",
					"name": "donatedAmount",
					"type": "uint256"
				}
			],
			"name": "Donated",
			"type": "event"
		},
		{
			"inputs": [
				{
					"internalType": "address",
					"name": "",
					"type": "address"
				}
			],
			"name": "donationDetails",
			"outputs": [
				{
					"internalType": "address",
					"name": "donator",
					"type": "address"
				},
				{
					"internalType": "uint256",
					"name": "donatedAmount",
					"type": "uint256"
				}
			],
			"stateMutability": "view",
			"type": "function"
		},
		{
			"inputs": [],
			"name": "fund",
			"outputs": [],
			"stateMutability": "payable",
			"type": "function"
		},
		{
			"inputs": [],
			"name": "withdraw",
			"outputs": [],
			"stateMutability": "nonpayable",
			"type": "function"
		}
	]
}